{
  "contractName": "Card",
  "abi": [
    {
      "constant": true,
      "inputs": [
        {
          "name": "_address",
          "type": "address"
        },
        {
          "name": "_tokenId",
          "type": "uint256"
        }
      ],
      "name": "balanceOf",
      "outputs": [
        {
          "name": "",
          "type": "uint256"
        }
      ],
      "payable": false,
      "stateMutability": "view",
      "type": "function",
      "signature": "0x00fdd58e"
    },
    {
      "constant": true,
      "inputs": [
        {
          "name": "interfaceId",
          "type": "bytes4"
        }
      ],
      "name": "supportsInterface",
      "outputs": [
        {
          "name": "",
          "type": "bool"
        }
      ],
      "payable": false,
      "stateMutability": "view",
      "type": "function",
      "signature": "0x01ffc9a7"
    },
    {
      "constant": true,
      "inputs": [
        {
          "name": "_tokenId",
          "type": "uint256"
        }
      ],
      "name": "getApproved",
      "outputs": [
        {
          "name": "",
          "type": "address"
        }
      ],
      "payable": false,
      "stateMutability": "view",
      "type": "function",
      "signature": "0x081812fc"
    },
    {
      "constant": false,
      "inputs": [
        {
          "name": "_to",
          "type": "address"
        },
        {
          "name": "_tokenId",
          "type": "uint256"
        },
        {
          "name": "_amount",
          "type": "uint256"
        }
      ],
      "name": "transfer",
      "outputs": [],
      "payable": false,
      "stateMutability": "nonpayable",
      "type": "function",
      "signature": "0x095bcdb6"
    },
    {
      "constant": false,
      "inputs": [
        {
          "name": "_to",
          "type": "address"
        },
        {
          "name": "_tokenId",
          "type": "uint256"
        }
      ],
      "name": "approve",
      "outputs": [],
      "payable": false,
      "stateMutability": "nonpayable",
      "type": "function",
      "signature": "0x095ea7b3"
    },
    {
      "constant": false,
      "inputs": [
        {
          "name": "_from",
          "type": "address"
        },
        {
          "name": "_to",
          "type": "address"
        },
        {
          "name": "_tokenId",
          "type": "uint256"
        },
        {
          "name": "_amount",
          "type": "uint256"
        }
      ],
      "name": "safeTransferFrom",
      "outputs": [],
      "payable": false,
      "stateMutability": "nonpayable",
      "type": "function",
      "signature": "0x0febdd49"
    },
    {
      "constant": true,
      "inputs": [],
      "name": "implementsERC721",
      "outputs": [
        {
          "name": "",
          "type": "bool"
        }
      ],
      "payable": false,
      "stateMutability": "pure",
      "type": "function",
      "signature": "0x1051db34"
    },
    {
      "constant": false,
      "inputs": [
        {
          "name": "_from",
          "type": "address"
        },
        {
          "name": "_to",
          "type": "address"
        },
        {
          "name": "_tokenIds",
          "type": "uint256[]"
        },
        {
          "name": "_amounts",
          "type": "uint256[]"
        }
      ],
      "name": "batchTransferFrom",
      "outputs": [],
      "payable": false,
      "stateMutability": "nonpayable",
      "type": "function",
      "signature": "0x17fad7fc"
    },
    {
      "constant": true,
      "inputs": [],
      "name": "totalSupply",
      "outputs": [
        {
          "name": "",
          "type": "uint256"
        }
      ],
      "payable": false,
      "stateMutability": "view",
      "type": "function",
      "signature": "0x18160ddd"
    },
    {
      "constant": true,
      "inputs": [
        {
          "name": "_owner",
          "type": "address"
        }
      ],
      "name": "tokensOwned",
      "outputs": [
        {
          "name": "indexes",
          "type": "uint256[]"
        },
        {
          "name": "balances",
          "type": "uint256[]"
        }
      ],
      "payable": false,
      "stateMutability": "view",
      "type": "function",
      "signature": "0x21cda790"
    },
    {
      "constant": false,
      "inputs": [
        {
          "name": "_from",
          "type": "address"
        },
        {
          "name": "_to",
          "type": "address"
        },
        {
          "name": "_tokenId",
          "type": "uint256"
        }
      ],
      "name": "transferFrom",
      "outputs": [],
      "payable": false,
      "stateMutability": "nonpayable",
      "type": "function",
      "signature": "0x23b872dd"
    },
    {
      "constant": false,
      "inputs": [
        {
          "name": "_from",
          "type": "address"
        },
        {
          "name": "_to",
          "type": "address"
        },
        {
          "name": "_tokenIds",
          "type": "uint256[]"
        },
        {
          "name": "_amounts",
          "type": "uint256[]"
        },
        {
          "name": "_data",
          "type": "bytes"
        }
      ],
      "name": "safeBatchTransferFrom",
      "outputs": [],
      "payable": false,
      "stateMutability": "nonpayable",
      "type": "function",
      "signature": "0x2eb2c2d6"
    },
    {
      "constant": true,
      "inputs": [
        {
          "name": "_owner",
          "type": "address"
        },
        {
          "name": "_index",
          "type": "uint256"
        }
      ],
      "name": "tokenOfOwnerByIndex",
      "outputs": [
        {
          "name": "_tokenId",
          "type": "uint256"
        }
      ],
      "payable": false,
      "stateMutability": "pure",
      "type": "function",
      "signature": "0x2f745c59"
    },
    {
      "constant": false,
      "inputs": [
        {
          "name": "_from",
          "type": "address"
        },
        {
          "name": "_to",
          "type": "address"
        },
        {
          "name": "_tokenId",
          "type": "uint256"
        }
      ],
      "name": "safeTransferFrom",
      "outputs": [],
      "payable": false,
      "stateMutability": "nonpayable",
      "type": "function",
      "signature": "0x42842e0e"
    },
    {
      "constant": true,
      "inputs": [
        {
          "name": "_tokenId",
          "type": "uint256"
        }
      ],
      "name": "exists",
      "outputs": [
        {
          "name": "",
          "type": "bool"
        }
      ],
      "payable": false,
      "stateMutability": "view",
      "type": "function",
      "signature": "0x4f558e79"
    },
    {
      "constant": true,
      "inputs": [
        {
          "name": "_index",
          "type": "uint256"
        }
      ],
      "name": "tokenByIndex",
      "outputs": [
        {
          "name": "",
          "type": "uint256"
        }
      ],
      "payable": false,
      "stateMutability": "view",
      "type": "function",
      "signature": "0x4f6ccce7"
    },
    {
      "constant": true,
      "inputs": [
        {
          "name": "_tokenId",
          "type": "uint256"
        }
      ],
      "name": "ownerOf",
      "outputs": [
        {
          "name": "",
          "type": "address"
        }
      ],
      "payable": false,
      "stateMutability": "view",
      "type": "function",
      "signature": "0x6352211e"
    },
    {
      "constant": true,
      "inputs": [
        {
          "name": "_owner",
          "type": "address"
        }
      ],
      "name": "balanceOf",
      "outputs": [
        {
          "name": "balance",
          "type": "uint256"
        }
      ],
      "payable": false,
      "stateMutability": "view",
      "type": "function",
      "signature": "0x70a08231"
    },
    {
      "constant": true,
      "inputs": [],
      "name": "cardSupply",
      "outputs": [
        {
          "name": "",
          "type": "int256"
        }
      ],
      "payable": false,
      "stateMutability": "view",
      "type": "function",
      "signature": "0x7c97479b"
    },
    {
      "constant": true,
      "inputs": [],
      "name": "implementsERC721X",
      "outputs": [
        {
          "name": "",
          "type": "bool"
        }
      ],
      "payable": false,
      "stateMutability": "pure",
      "type": "function",
      "signature": "0x7fb42a36"
    },
    {
      "constant": false,
      "inputs": [
        {
          "name": "_operator",
          "type": "address"
        },
        {
          "name": "_approved",
          "type": "bool"
        }
      ],
      "name": "setApprovalForAll",
      "outputs": [],
      "payable": false,
      "stateMutability": "nonpayable",
      "type": "function",
      "signature": "0xa22cb465"
    },
    {
      "constant": false,
      "inputs": [
        {
          "name": "_from",
          "type": "address"
        },
        {
          "name": "_to",
          "type": "address"
        },
        {
          "name": "_tokenId",
          "type": "uint256"
        },
        {
          "name": "_data",
          "type": "bytes"
        }
      ],
      "name": "safeTransferFrom",
      "outputs": [],
      "payable": false,
      "stateMutability": "nonpayable",
      "type": "function",
      "signature": "0xb88d4fde"
    },
    {
      "constant": true,
      "inputs": [
        {
          "name": "_tokenId",
          "type": "uint256"
        }
      ],
      "name": "tokenURI",
      "outputs": [
        {
          "name": "",
          "type": "string"
        }
      ],
      "payable": false,
      "stateMutability": "view",
      "type": "function",
      "signature": "0xc87b56dd"
    },
    {
      "constant": true,
      "inputs": [
        {
          "name": "_owner",
          "type": "address"
        },
        {
          "name": "_operator",
          "type": "address"
        }
      ],
      "name": "isApprovedForAll",
      "outputs": [
        {
          "name": "isOperator",
          "type": "bool"
        }
      ],
      "payable": false,
      "stateMutability": "view",
      "type": "function",
      "signature": "0xe985e9c5"
    },
    {
      "constant": false,
      "inputs": [
        {
          "name": "_from",
          "type": "address"
        },
        {
          "name": "_to",
          "type": "address"
        },
        {
          "name": "_tokenId",
          "type": "uint256"
        },
        {
          "name": "_amount",
          "type": "uint256"
        },
        {
          "name": "_data",
          "type": "bytes"
        }
      ],
      "name": "safeTransferFrom",
      "outputs": [],
      "payable": false,
      "stateMutability": "nonpayable",
      "type": "function",
      "signature": "0xf242432a"
    },
    {
      "constant": false,
      "inputs": [
        {
          "name": "_from",
          "type": "address"
        },
        {
          "name": "_to",
          "type": "address"
        },
        {
          "name": "_tokenId",
          "type": "uint256"
        },
        {
          "name": "_amount",
          "type": "uint256"
        }
      ],
      "name": "transferFrom",
      "outputs": [],
      "payable": false,
      "stateMutability": "nonpayable",
      "type": "function",
      "signature": "0xfe99049a"
    },
    {
      "inputs": [
        {
          "name": "_baseTokenURI",
          "type": "string"
        }
      ],
      "payable": false,
      "stateMutability": "nonpayable",
      "type": "constructor",
      "signature": "constructor"
    },
    {
      "anonymous": false,
      "inputs": [
        {
          "indexed": false,
          "name": "from",
          "type": "address"
        },
        {
          "indexed": false,
          "name": "to",
          "type": "address"
        },
        {
          "indexed": false,
          "name": "tokenTypes",
          "type": "uint256[]"
        },
        {
          "indexed": false,
          "name": "amounts",
          "type": "uint256[]"
        }
      ],
      "name": "BatchTransfer",
      "type": "event",
      "signature": "0xf59807b2c31ca3ba212e90599175c120c556422950bac5be656274483e8581df"
    },
    {
      "anonymous": false,
      "inputs": [
        {
          "indexed": true,
          "name": "from",
          "type": "address"
        },
        {
          "indexed": true,
          "name": "to",
          "type": "address"
        },
        {
          "indexed": true,
          "name": "tokenId",
          "type": "uint256"
        }
      ],
      "name": "Transfer",
      "type": "event",
      "signature": "0xddf252ad1be2c89b69c2b068fc378daa952ba7f163c4a11628f55a4df523b3ef"
    },
    {
      "anonymous": false,
      "inputs": [
        {
          "indexed": true,
          "name": "owner",
          "type": "address"
        },
        {
          "indexed": true,
          "name": "approved",
          "type": "address"
        },
        {
          "indexed": true,
          "name": "tokenId",
          "type": "uint256"
        }
      ],
      "name": "Approval",
      "type": "event",
      "signature": "0x8c5be1e5ebec7d5bd14f71427d1e84f3dd0314c0f7b2291e5b200ac8c7c3b925"
    },
    {
      "anonymous": false,
      "inputs": [
        {
          "indexed": true,
          "name": "owner",
          "type": "address"
        },
        {
          "indexed": true,
          "name": "operator",
          "type": "address"
        },
        {
          "indexed": false,
          "name": "approved",
          "type": "bool"
        }
      ],
      "name": "ApprovalForAll",
      "type": "event",
      "signature": "0x17307eab39ab6107e8899845ad3d59bd9653f200f220920489ca2b5937696c31"
    },
    {
      "anonymous": false,
      "inputs": [
        {
          "indexed": true,
          "name": "from",
          "type": "address"
        },
        {
          "indexed": true,
          "name": "to",
          "type": "address"
        },
        {
          "indexed": true,
          "name": "tokenId",
          "type": "uint256"
        },
        {
          "indexed": false,
          "name": "quantity",
          "type": "uint256"
        }
      ],
      "name": "TransferWithQuantity",
      "type": "event",
      "signature": "0x2114851a3e2a54429989f46c1ab0743e37ded205d9bbdfd85635aed5bd595a06"
    },
    {
      "constant": true,
      "inputs": [],
      "name": "isOwner",
      "outputs": [
        {
          "name": "",
          "type": "bool"
        }
      ],
      "payable": false,
      "stateMutability": "view",
      "type": "function",
      "signature": "0x8f32d59b"
    },
    {
      "constant": true,
      "inputs": [],
      "name": "name",
      "outputs": [
        {
          "name": "",
          "type": "string"
        }
      ],
      "payable": false,
      "stateMutability": "view",
      "type": "function",
      "signature": "0x06fdde03"
    },
    {
      "constant": true,
      "inputs": [],
      "name": "symbol",
      "outputs": [
        {
          "name": "",
          "type": "string"
        }
      ],
      "payable": false,
      "stateMutability": "view",
      "type": "function",
      "signature": "0x95d89b41"
    },
    {
      "constant": true,
      "inputs": [
        {
          "name": "_from",
          "type": "address"
        },
        {
          "name": "_tokenId",
          "type": "uint256"
        }
      ],
      "name": "getBalance",
      "outputs": [
        {
          "name": "",
          "type": "uint256"
        }
      ],
      "payable": false,
      "stateMutability": "view",
      "type": "function",
      "signature": "0x2b04e840"
    },
    {
      "constant": true,
      "inputs": [
        {
          "name": "_tokenId",
          "type": "uint256"
        }
      ],
      "name": "individualSupply",
      "outputs": [
        {
          "name": "",
          "type": "uint256"
        }
      ],
      "payable": false,
      "stateMutability": "view",
      "type": "function",
      "signature": "0x17be1933"
    },
    {
      "constant": false,
      "inputs": [],
      "name": "mint",
      "outputs": [],
      "payable": false,
      "stateMutability": "nonpayable",
      "type": "function",
      "signature": "0x1249c58b"
    },
    {
      "constant": false,
      "inputs": [
        {
          "name": "_tokenId",
          "type": "uint256"
        },
        {
          "name": "_supply",
          "type": "uint256"
        }
      ],
      "name": "mintToken",
      "outputs": [
        {
          "name": "",
          "type": "string"
        }
      ],
      "payable": false,
      "stateMutability": "nonpayable",
      "type": "function",
      "signature": "0x20cbf5f9"
    },
    {
      "constant": false,
      "inputs": [],
      "name": "getCardSupply",
      "outputs": [
        {
          "name": "",
          "type": "int256"
        }
      ],
      "payable": false,
      "stateMutability": "nonpayable",
      "type": "function",
      "signature": "0xbf4f4721"
    },
    {
      "constant": false,
      "inputs": [
        {
          "name": "_index",
          "type": "uint256"
        }
      ],
      "name": "getBook",
      "outputs": [],
      "payable": false,
      "stateMutability": "nonpayable",
      "type": "function",
      "signature": "0xe0ff5b8b"
    }
  ],
  "bytecode": "0x60806040526000600c55607b600e553480156200001b57600080fd5b5060405162002b9b38038062002b9b833981018060405260208110156200004157600080fd5b8101908080516401000000008111156200005a57600080fd5b820160208101848111156200006e57600080fd5b81516401000000008111828201871017156200008957600080fd5b50509291905050508080620000ab6301ffc9a760e01b620000fa60201b60201c565b620000c36380ac58cd60e01b620000fa60201b60201c565b8051620000d890600b90602084019062000167565b50620000f1635b5e139f60e01b620000fa60201b60201c565b5050506200020c565b7fffffffff0000000000000000000000000000000000000000000000000000000080821614156200012a57600080fd5b7fffffffff00000000000000000000000000000000000000000000000000000000166000908152602081905260409020805460ff19166001179055565b828054600181600116156101000203166002900490600052602060002090601f016020900481019282601f10620001aa57805160ff1916838001178555620001da565b82800160010185558215620001da579182015b82811115620001da578251825591602001919060010190620001bd565b50620001e8929150620001ec565b5090565b6200020991905b80821115620001e85760008155600101620001f3565b90565b61297f806200021c6000396000f3fe608060405234801561001057600080fd5b50600436106102105760003560e01c80632f745c591161012557806395d89b41116100ad578063c87b56dd1161007c578063c87b56dd14610a47578063e0ff5b8b14610a64578063e985e9c514610a81578063f242432a14610aaf578063fe99049a14610b7857610210565b806395d89b4114610945578063a22cb4651461094d578063b88d4fde1461097b578063bf4f472114610a3f57610210565b80636352211e116100f45780636352211e146108f257806370a082311461090f5780637c97479b146109355780637fb42a36146103e05780638f32d59b1461093d57610210565b80632f745c591461085657806342842e0e146108825780634f558e79146108b85780634f6ccce7146108d557610210565b80631249c58b116101a857806320cbf5f91161017757806320cbf5f91461055157806321cda7901461057457806323b872dd146106335780632b04e840146106695780632eb2c2d61461069557610210565b80631249c58b146103e857806317be1933146103f057806317fad7fc1461040d57806318160ddd1461054957610210565b8063095bcdb6116101e4578063095bcdb614610344578063095ea7b3146103785780630febdd49146103a45780631051db34146103e057610210565b8062fdd58e1461021557806301ffc9a71461025357806306fdde031461028e578063081812fc1461030b575b600080fd5b6102416004803603604081101561022b57600080fd5b506001600160a01b038135169060200135610bb4565b60408051918252519081900360200190f35b61027a6004803603602081101561026957600080fd5b50356001600160e01b031916610c04565b604080519115158252519081900360200190f35b610296610c27565b6040805160208082528351818301528351919283929083019185019080838360005b838110156102d05781810151838201526020016102b8565b50505050905090810190601f1680156102fd5780820380516001836020036101000a031916815260200191505b509250505060405180910390f35b6103286004803603602081101561032157600080fd5b5035610c49565b604080516001600160a01b039092168252519081900360200190f35b6103766004803603606081101561035a57600080fd5b506001600160a01b038135169060208101359060400135610c64565b005b6103766004803603604081101561038e57600080fd5b506001600160a01b038135169060200135610c75565b610376600480360360808110156103ba57600080fd5b506001600160a01b03813581169160208101359091169060408101359060600135610d22565b61027a610d44565b610376610d49565b6102416004803603602081101561040657600080fd5b5035610d6d565b6103766004803603608081101561042357600080fd5b6001600160a01b038235811692602081013590911691810190606081016040820135600160201b81111561045657600080fd5b82018360208201111561046857600080fd5b803590602001918460208302840111600160201b8311171561048957600080fd5b9190808060200260200160405190810160405280939291908181526020018383602002808284376000920191909152509295949360208101935035915050600160201b8111156104d857600080fd5b8201836020820111156104ea57600080fd5b803590602001918460208302840111600160201b8311171561050b57600080fd5b919080806020026020016040519081016040528093929190818152602001838360200280828437600092019190915250929550610d7f945050505050565b610241610d8b565b6102966004803603604081101561056757600080fd5b5080359060200135610d91565b61059a6004803603602081101561058a57600080fd5b50356001600160a01b0316610dd8565b604051808060200180602001838103835285818151815260200191508051906020019060200280838360005b838110156105de5781810151838201526020016105c6565b50505050905001838103825284818151815260200191508051906020019060200280838360005b8381101561061d578181015183820152602001610605565b5050505090500194505050505060405180910390f35b6103766004803603606081101561064957600080fd5b506001600160a01b03813581169160208101359091169060400135610fa0565b6102416004803603604081101561067f57600080fd5b506001600160a01b038135169060200135610fab565b610376600480360360a08110156106ab57600080fd5b6001600160a01b038235811692602081013590911691810190606081016040820135600160201b8111156106de57600080fd5b8201836020820111156106f057600080fd5b803590602001918460208302840111600160201b8311171561071157600080fd5b9190808060200260200160405190810160405280939291908181526020018383602002808284376000920191909152509295949360208101935035915050600160201b81111561076057600080fd5b82018360208201111561077257600080fd5b803590602001918460208302840111600160201b8311171561079357600080fd5b9190808060200260200160405190810160405280939291908181526020018383602002808284376000920191909152509295949360208101935035915050600160201b8111156107e257600080fd5b8201836020820111156107f457600080fd5b803590602001918460018302840111600160201b8311171561081557600080fd5b91908080601f016020809104026020016040519081016040528093929190818152602001838380828437600092019190915250929550610fbe945050505050565b6102416004803603604081101561086c57600080fd5b506001600160a01b0381351690602001356111a2565b6103766004803603606081101561089857600080fd5b506001600160a01b038135811691602081013590911690604001356111aa565b61027a600480360360208110156108ce57600080fd5b50356111c5565b610241600480360360208110156108eb57600080fd5b50356111d9565b6103286004803603602081101561090857600080fd5b503561120d565b6102416004803603602081101561092557600080fd5b50356001600160a01b0316611295565b6102416112ab565b61027a6112b1565b6102966112c2565b6103766004803603604081101561096357600080fd5b506001600160a01b03813516906020013515156112e2565b6103766004803603608081101561099157600080fd5b6001600160a01b03823581169260208101359091169160408201359190810190608081016060820135600160201b8111156109cb57600080fd5b8201836020820111156109dd57600080fd5b803590602001918460018302840111600160201b831117156109fe57600080fd5b91908080601f016020809104026020016040519081016040528093929190818152602001838380828437600092019190915250929550611350945050505050565b6102416113a5565b61029660048036036020811015610a5d57600080fd5b50356113b3565b61037660048036036020811015610a7a57600080fd5b50356114f4565b61027a60048036036040811015610a9757600080fd5b506001600160a01b0381358116916020013516611728565b610376600480360360a0811015610ac557600080fd5b6001600160a01b03823581169260208101359091169160408201359160608101359181019060a081016080820135600160201b811115610b0457600080fd5b820183602082011115610b1657600080fd5b803590602001918460018302840111600160201b83111715610b3757600080fd5b91908080601f016020809104026020016040519081016040528093929190818152602001838380828437600092019190915250929550611756945050505050565b61037660048036036080811015610b8e57600080fd5b506001600160a01b038135811691602081013590911690604081013590606001356117ad565b6000806000610bc2846117b9565b6001600160a01b03871660009081526006602090815260408083208584529091529020549193509150610bfb908263ffffffff6117ca16565b95945050505050565b6001600160e01b0319811660009081526020819052604090205460ff165b919050565b6040805180820190915260048152600160e21b6310d85c990260208201525b90565b6000908152600960205260409020546001600160a01b031690565b610c70338484846117e2565b505050565b6000610c808261120d565b9050806001600160a01b0316836001600160a01b03161415610ca157600080fd5b336001600160a01b0382161480610cbd5750610cbd8133611728565b610cc657600080fd5b60008281526009602052604080822080546001600160a01b0319166001600160a01b0387811691821790925591518593918516917f8c5be1e5ebec7d5bd14f71427d1e84f3dd0314c0f7b2291e5b200ac8c7c3b92591a4505050565b610d3e8484848460405180602001604052806000815250611756565b50505050565b600190565b600c54610d5d81600163ffffffff61198416565b600c55610d6a3382611996565b50565b60009081526010602052604090205490565b610d3e84848484611a25565b60055490565b6060610d9e833384611fed565b5060009182526010602090815260409283902091909155815180830190925260098252600160b91b6836b4b73a2a37b5b2b7029082015290565b6060806000610de5610d8b565b9050606081604051908082528060200260200182016040528015610e13578160200160208202803883390190505b509050606082604051908082528060200260200182016040528015610e42578160200160208202803883390190505b5090506000805b84811015610ec957600060058281548110610e6057fe5b906000526020600020015490506000610e798a83610bb4565b1115610ec057610e898982610bb4565b848481518110610e9557fe5b60200260200101818152505080858481518110610eae57fe5b60209081029190910101526001909201915b50600101610e49565b50606081604051908082528060200260200182016040528015610ef6578160200160208202803883390190505b509050606082604051908082528060200260200182016040528015610f25578160200160208202803883390190505b50905060005b83811015610f9257848181518110610f3f57fe5b6020026020010151838281518110610f5357fe5b602002602001018181525050858181518110610f6b57fe5b6020026020010151828281518110610f7f57fe5b6020908102919091010152600101610f2b565b509650945050505050915091565b610c708383836120eb565b6000610fb78383610bb4565b9392505050565b610fca85858585611a25565b610fdc846001600160a01b03166121de565b1561119b576000846001600160a01b031663b3b0f4c733888787876040518663ffffffff1660e01b815260040180866001600160a01b03166001600160a01b03168152602001856001600160a01b03166001600160a01b03168152602001806020018060200180602001848103845287818151815260200191508051906020019060200280838360005b8381101561107e578181015183820152602001611066565b50505050905001848103835286818151815260200191508051906020019060200280838360005b838110156110bd5781810151838201526020016110a5565b50505050905001848103825285818151815260200191508051906020019080838360005b838110156110f95781810151838201526020016110e1565b50505050905090810190601f1680156111265780820380516001836020036101000a031916815260200191505b5098505050505050505050602060405180830381600087803b15801561114b57600080fd5b505af115801561115f573d6000803e3d6000fd5b505050506040513d602081101561117557600080fd5b505190506001600160e01b03198116600160e11b6374f2df35021461119957600080fd5b505b5050505050565b600092915050565b610c7083838360405180602001604052806000815250611350565b6000908152600a6020526040902054151590565b60006111e3610d8b565b82106111ee57600080fd5b600582815481106111fb57fe5b90600052602060002001549050919050565b6000818152600760205260408120546001600160a01b03166112795760408051600160e51b62461bcd02815260206004820152601360248201527f436f696e20646f6573206e6f7420657869737400000000000000000000000000604482015290519081900360640190fd5b506000908152600760205260409020546001600160a01b031690565b600060606112a283610dd8565b51949350505050565b600f5481565b600d546001600160a01b0316331490565b6040805180820190915260038152600160ea1b6210d49102602082015290565b3360008181526008602090815260408083206001600160a01b03871680855290835292819020805460ff1916861515908117909155815190815290519293927f17307eab39ab6107e8899845ad3d59bd9653f200f220920489ca2b5937696c31929181900390910190a35050565b61135b8484846120eb565b611367848484846121e4565b610d3e57604051600160e51b62461bcd0281526004018080602001828103825260328152602001806128856032913960400191505060405180910390fd5b600f80546001019081905590565b60606113be826111c5565b6114125760408051600160e51b62461bcd02815260206004820152601360248201527f546f6b656e20646f65736e277420657869737400000000000000000000000000604482015290519081900360640190fd5b600b61141d8361231e565b604051602001808380546001816001161561010002031660029004801561147b5780601f1061145957610100808354040283529182019161147b565b820191906000526020600020905b815481529060010190602001808311611467575b5050825160208401908083835b602083106114a75780518252601f199092019160209182019101611488565b5181516020939093036101000a6000190180199091169216919091179052600160d91b64173539b7b70292019182525060408051808303601a190181526005909201905295945050505050565b60006011828154811061150357fe5b90600052602060002090600202019050604051806040016040528060058152602001600160d81b6452656164210281525081600101908051906020019061154b929190612789565b50611554612807565b6011836001018154811061156457fe5b60009182526020918290206040805160029384029092018054600181161561010002600019011693909304601f810185900490940282016060908101825290820184815291938492918491908401828280156116015780601f106115d657610100808354040283529160200191611601565b820191906000526020600020905b8154815290600101906020018083116115e457829003601f168201915b50505050508152602001600182018054600181600116156101000203166002900480601f0160208091040260200160405190810160405280929190818152602001828054600181600116156101000203166002900480156116a35780601f10611678576101008083540402835291602001916116a3565b820191906000526020600020905b81548152906001019060200180831161168657829003601f168201915b5050505050815250509050604051806040016040528060058152602001600160d81b64526561642102815250816020018190525080601184815481106116e557fe5b9060005260206000209060020201600082015181600001908051906020019061170f929190612789565b5060208281015180516111999260018501920190612789565b6001600160a01b03918216600090815260086020908152604080832093909416825291909152205460ff1690565b611762858585856117e2565b61176f85858585856123e2565b61119b57604051600160e51b62461bcd0281526004018080602001828103825260338152602001806128ff6033913960400191505060405180910390fd5b610d3e848484846117e2565b610100601082020491600f90911690565b600181016010026101000382901c61ffff1692915050565b83336001600160a01b038216148061181d57506001600160a01b038116600090815260086020908152604080832033845290915290205460ff165b61185b57604051600160e51b62461bcd0281526004018080602001828103825260288152602001806128d76028913960400191505060405180910390fd5b6000838152600a602052604090205460021461187657600080fd5b6118808584610bb4565b8211156118c157604051600160e51b62461bcd0281526004018080602001828103825260228152602001806129326022913960400191505060405180910390fd5b6001600160a01b0384166119175760408051600160e51b62461bcd0281526020600482015260126024820152600160701b71496e76616c696420746f206164647265737302604482015290519081900360640190fd5b611924858484600161253e565b611931848484600061253e565b82846001600160a01b0316866001600160a01b03167f2114851a3e2a54429989f46c1ab0743e37ded205d9bbdfd85635aed5bd595a06856040518082815260200191505060405180910390a45050505050565b600082820183811015610fb757600080fd5b6001600160a01b0382166119a957600080fd5b6119b2816125b5565b156119bc57600080fd5b600081815260016020908152604080832080546001600160a01b0319166001600160a01b0387169081179091558352600390915290206119fb906125d2565b60405181906001600160a01b038416906000906000805160206128b7833981519152908290a45050565b83336001600160a01b0382161480611a6057506001600160a01b038116600090815260086020908152604080832033845290915290205460ff165b611a9e57604051600160e51b62461bcd0281526004018080602001828103825260288152602001806128d76028913960400191505060405180910390fd5b8151835114611ae157604051600160e51b62461bcd02815260040180806020018281038252602681526020018061283c6026913960400191505060405180910390fd5b6001600160a01b038416611b3f5760408051600160e51b62461bcd02815260206004820152601160248201527f496e76616c696420726563697069656e74000000000000000000000000000000604482015290519081900360640190fd5b6001600a600085600081518110611b5257fe5b60200260200101518152602001908152602001600020541415611bff57836007600085600081518110611b8157fe5b6020026020010151815260200190815260200160002060006101000a8154816001600160a01b0302191690836001600160a01b0316021790555082600081518110611bc857fe5b6020026020010151846001600160a01b0316866001600160a01b03166000805160206128b783398151915260405160405180910390a45b600080611c1f85600081518110611c1257fe5b60200260200101516117b9565b915091506000611c7c600660008a6001600160a01b03166001600160a01b031681526020019081526020016000206000858152602001908152602001600020548387600081518110611c6d57fe5b602002602001015160016125db565b90506000611cd7600660008a6001600160a01b03166001600160a01b031681526020019081526020016000206000868152602001908152602001600020548488600081518110611cc857fe5b602002602001015160006125db565b87519091508460015b82811015611e7a576001600a60008c8481518110611cfa57fe5b60200260200101518152602001908152602001600020541415611da5578a600760008c8481518110611d2857fe5b6020026020010151815260200190815260200160002060006101000a8154816001600160a01b0302191690836001600160a01b03160217905550898181518110611d6e57fe5b60200260200101518b6001600160a01b03168d6001600160a01b03166000805160206128b783398151915260405160405180910390a45b611db48a8281518110611c1257fe5b9097509550818714611e18576001600160a01b038c811660009081526006602081815260408084208785528083528185209a909a55938f16835290815282822094825284815282822096909655888152958552808620549290945292909320549185905b611e43868a8381518110611e2857fe5b60200260200101516001886125db909392919063ffffffff16565b9450611e70868a8381518110611e5557fe5b60200260200101516000876125db909392919063ffffffff16565b9350600101611ce0565b5083600660008d6001600160a01b03166001600160a01b0316815260200190815260200160002060008881526020019081526020016000208190555082600660008c6001600160a01b03166001600160a01b031681526020019081526020016000206000888152602001908152602001600020819055507ff59807b2c31ca3ba212e90599175c120c556422950bac5be656274483e8581df8b8b8b8b60405180856001600160a01b03166001600160a01b03168152602001846001600160a01b03166001600160a01b031681526020018060200180602001838103835285818151815260200191508051906020019060200280838360005b83811015611f8a578181015183820152602001611f72565b50505050905001838103825284818151815260200191508051906020019060200280838360005b83811015611fc9578181015183820152602001611fb1565b50505050905001965050505050505060405180910390a15050505050505050505050565b611ff6836111c5565b612042576000838152600a60205260408120600290556005805460018101825591527f036b6384b5eca791c62761152d0c79bb0604c104a5fb6f4eb0703f3154bb3db001839055612096565b6000838152600a60205260409020546002146120965760408051600160e51b62461bcd0281526020600482015260086024820152600160c21b67139bdd081848119502604482015290519081900360640190fd5b6120a3828483600061253e565b60408051828152905184916001600160a01b0385169130917f2114851a3e2a54429989f46c1ab0743e37ded205d9bbdfd85635aed5bd595a06919081900360200190a4505050565b6000818152600a602052604090205460011461210657600080fd5b612119836121138361120d565b836126c2565b61212257600080fd5b6001600160a01b0382166121785760408051600160e51b62461bcd0281526020600482015260126024820152600160701b71496e76616c696420746f206164647265737302604482015290519081900360640190fd5b61218683826000600261253e565b61219482826001600261253e565b60008181526007602052604080822080546001600160a01b0319166001600160a01b0386811691821790925591518493918716916000805160206128b783398151915291a4505050565b3b151590565b60006121f8846001600160a01b03166121de565b61220457506001612316565b604051600160e11b630a85bd0102815233600482018181526001600160a01b03888116602485015260448401879052608060648501908152865160848601528651600095928a169463150b7a029490938c938b938b939260a4019060208501908083838e5b83811015612281578181015183820152602001612269565b50505050905090810190601f1680156122ae5780820380516001836020036101000a031916815260200191505b5095505050505050602060405180830381600087803b1580156122d057600080fd5b505af11580156122e4573d6000803e3d6000fd5b505050506040513d60208110156122fa57600080fd5b50516001600160e01b031916600160e11b630a85bd0102149150505b949350505050565b60608161234657506040805180820190915260018152600160fc1b6003026020820152610c22565b8160005b811561235e57600101600a8204915061234a565b6060816040519080825280601f01601f19166020018201604052801561238b576020820181803883390190505b50905060001982015b85156123d957600a860660300160f81b828280600190039350815181106123b757fe5b60200101906001600160f81b031916908160001a905350600a86049550612394565b50949350505050565b60006123f6856001600160a01b03166121de565b61240257506001610bfb565b6000856001600160a01b03166393ba7daa33898888886040518663ffffffff1660e01b815260040180866001600160a01b03166001600160a01b03168152602001856001600160a01b03166001600160a01b0316815260200184815260200183815260200180602001828103825283818151815260200191508051906020019080838360005b838110156124a0578181015183820152602001612488565b50505050905090810190601f1680156124cd5780820380516001836020036101000a031916815260200191505b509650505050505050602060405180830381600087803b1580156124f057600080fd5b505af1158015612504573d6000803e3d6000fd5b505050506040513d602081101561251a57600080fd5b50516001600160e01b031916600160e41b630660b337021491505095945050505050565b60008061254a856117b9565b6001600160a01b038816600090815260066020908152604080832085845290915290205491935091506125859082868663ffffffff6125db16565b6001600160a01b039096166000908152600660209081526040808320948352939052919091209490945550505050565b6000908152600160205260409020546001600160a01b0316151590565b80546001019055565b600080808360028111156125eb57fe5b141561261e576125fb86866117ca565b90506126178686612612848863ffffffff61198416565b61270d565b91506123d9565b600183600281111561262c57fe5b14156126535761263c86866117ca565b90506126178686612612848863ffffffff61277416565b600283600281111561266157fe5b14156126725761261786868661270d565b60408051600160e51b62461bcd02815260206004820152601160248201527f496e76616c6964206f7065726174696f6e000000000000000000000000000000604482015290519081900360640190fd5b6000826001600160a01b0316846001600160a01b031614806126fd5750836001600160a01b03166126f283610c49565b6001600160a01b0316145b8061231657506123168385611728565b600062010000821061275357604051600160e51b62461bcd0281526004018080602001828103825260238152602001806128626023913960400191505060405180910390fd5b5061ffff600183016010026101000390811b1984169082901b179392505050565b60008282111561278357600080fd5b50900390565b828054600181600116156101000203166002900490600052602060002090601f016020900481019282601f106127ca57805160ff19168380011785556127f7565b828001600101855582156127f7579182015b828111156127f75782518255916020019190600101906127dc565b50612803929150612821565b5090565b604051806040016040528060608152602001606081525090565b610c4691905b80821115612803576000815560010161282756fe496e636f6e73697374656e74206172726179206c656e677468206265747765656e2061726773416d6f756e7420746f20777269746520696e2062696e20697320746f6f206c6172676553656e7420746f206120636f6e7472616374207768696368206973206e6f7420616e20455243373231207265636569766572ddf252ad1be2c89b69c2b068fc378daa952ba7f163c4a11628f55a4df523b3ef6d73672e73656e646572206973206e656974686572205f66726f6d206e6f72206f70657261746f7253656e7420746f206120636f6e7472616374207768696368206973206e6f7420616e20455243373231582072656365697665725175616e746974792067726561746572207468616e2066726f6d2062616c616e6365a165627a7a723058200c1f31ce65adc52d9655586db1d0cc6da7eb360db713554467424a279f0a87210029",
  "source": "pragma solidity ^0.5.6 <0.7.0;\n\nimport \"./ERC721X/ERC721XToken.sol\";\nimport \"./Ownable.sol\";\n\ncontract Card is ERC721XToken {\n\n    uint256 internal nextTokenId = 0;\n    address private _owner;\n    int tmp_int = 123;\n    int public cardSupply;\n\n    modifier onlyOwner() {\n      require(isOwner());\n      _;\n    }\n\n    mapping(uint => uint) internal tokenIdToIndividualSupply;\n    constructor(string memory _baseTokenURI) public ERC721XToken(_baseTokenURI) {}\n    //event TokenAwarded(uint indexed tokenId, address claimer, uint amount);\n\n    function isOwner() public view returns(bool) {\n      return msg.sender == _owner;\n    }\n\n    function name() public view returns (string memory) {\n        return \"Card\";\n    }\n\n    function symbol() public view returns (string memory) {\n        return \"CRD\";\n    }\n\n    function getBalance(address _from, uint256 _tokenId) public view returns (uint256){\n        return balanceOf(_from, _tokenId);\n    }\n\n    function individualSupply(uint _tokenId) public view returns (uint) {\n        return tokenIdToIndividualSupply[_tokenId];\n    }\n\n    function mint() public {\n        uint256 tokenId = nextTokenId;\n        nextTokenId = nextTokenId.add(1);\n        super._mint(msg.sender, tokenId);\n    }\n\n    function mintToken(uint _tokenId, uint _supply) public returns (string memory){\n      //require(!exists(_tokenId), \"Error: Tried to mint duplicate token id\");\n        super._mint(_tokenId, msg.sender, _supply);\n        tokenIdToIndividualSupply[_tokenId] = _supply;\n        return \"mintToken\";\n    }\n\n    function getCardSupply() public returns (int) {\n        cardSupply = cardSupply + 1;\n        return cardSupply;\n    }\n\n    //function awardToken(uint _tokenId, address _toAddress, uint _amount) public onlyOwner {\n    //    require(exists(_tokenId), \"TokenID has not been minted\");\n    //    if (individualSupply[_tokenId] > 0) {\n    //        require(_amount <= balanceOf(msg.sender, _tokenId), \"Quantity greater than remaining cards\");\n    //        _updateTokenBalance(msg.sender, _tokenId, _amount, ObjectLib.Operations.SUB);\n    //    }\n    //    _updateTokenBalance(_toAddress, _tokenId, _amount, ObjectLib.Operations.ADD);\n    //    emit TokenAwarded(_tokenId, _toAddress, _amount);\n    //}\n\n\n\n    struct Book {\n      string name;\n      string status;\n    }\n\n    Book[] books;\n\n    function getBook(uint _index) public {\n      // storagememory\n      // Book book1 = books[_index];\n\n      // \n      // \n      Book storage book1 = books[_index];\n      book1.status = \"Read!\";\n\n      // memory\n      // memory\n      Book memory book2 = books[_index + 1];\n      book2.status = \"Read!\";\n\n      // memory\n      books[_index] = book2;\n    }\n\n}\n",
  "sourcePath": "/Users/vulture0902/work/x_17_tobisako/_src/xx_11_ERC721x/contracts/Core/Card.sol",
  "compiler": {
    "name": "solc",
    "version": "0.5.6+commit.b259423e.Emscripten.clang"
  },
  "schemaVersion": "3.0.3",
  "updatedAt": "2019-04-19T04:35:18.794Z",
  "devdoc": {
    "methods": {
      "approve(address,uint256)": {
        "details": "Approves another address to transfer the given token ID The zero address indicates there is no approved address. There can only be one approved address per token at a given time. Can only be called by the token owner or an approved operator.",
        "params": {
          "_to": "address to be approved for the given token ID",
          "_tokenId": "uint256 ID of the token to be approved"
        }
      },
      "balanceOf(address)": {
        "details": "Gets the number of tokens owned by the address we are checking",
        "params": {
          "_owner": "The adddress we are checking"
        },
        "return": "balance The unique amount of tokens owned"
      },
      "balanceOf(address,uint256)": {
        "details": "return the _tokenId type' balance of _address",
        "params": {
          "_address": "Address to query balance of",
          "_tokenId": "type to query balance of"
        },
        "return": "Amount of objects of a given type ID"
      },
      "exists(uint256)": {
        "details": "Returns whether the specified token exists",
        "params": {
          "_tokenId": "uint256 ID of the token to query the existence of"
        },
        "return": "whether the token exists"
      },
      "getApproved(uint256)": {
        "details": "Gets the approved address for a token ID, or zero if no address set",
        "params": {
          "_tokenId": "uint256 ID of the token to query the approval of"
        },
        "return": "address currently approved for the given token ID"
      },
      "isApprovedForAll(address,address)": {
        "details": "Function that verifies whether _operator is an authorized operator of _tokenHolder.",
        "params": {
          "_operator": "The address of the operator to query status of",
          "_owner": "Address of the tokenHolder"
        },
        "return": "A uint256 specifying the amount of tokens still available for the spender."
      },
      "ownerOf(uint256)": {
        "details": "Gets the owner of a given NFT",
        "params": {
          "_tokenId": "uint256 representing the unique token identifier"
        },
        "return": "address the owner of the token"
      },
      "safeBatchTransferFrom(address,address,uint256[],uint256[],bytes)": {
        "details": "transfer objects from different tokenIds to specified address",
        "params": {
          "_amounts": "Array of amount of object per type to be transferred.",
          "_data": "Data to pass to onERC721XReceived() function if recipient is contract Note:  Arrays should be sorted so that all tokenIds in a same bin are adjacent (more efficient).",
          "_from": "The address to BatchTransfer objects from.",
          "_to": "The address to batchTransfer objects to.",
          "_tokenIds": "Array of tokenIds to update balance of"
        }
      },
      "setApprovalForAll(address,bool)": {
        "details": "Will set _operator operator status to true or false",
        "params": {
          "_approved": "_operator's new operator status (true or false)",
          "_operator": "Address to changes operator status."
        }
      },
      "supportsInterface(bytes4)": {
        "details": "implement supportsInterface(bytes4) using a lookup table"
      },
      "tokenByIndex(uint256)": {
        "details": "Gets the token ID at a given index of all the tokens in this contract Reverts if the index is greater or equal to the total number of tokens",
        "params": {
          "_index": "uint256 representing the index to be accessed of the tokens list"
        },
        "return": "uint256 token ID at the given index of the tokens list"
      },
      "tokensOwned(address)": {
        "details": "Gets Iterate through the list of existing tokens and return the indexes       and balances of the tokens owner by the user",
        "params": {
          "_owner": "The adddress we are checking"
        },
        "return": "indexes The tokenIdsbalances The balances of each token"
      },
      "totalSupply()": {
        "details": "Gets the total amount of tokens stored by the contract",
        "return": "uint256 representing the total amount of tokens"
      }
    }
  },
  "userdoc": {
    "methods": {}
  }
}