{
  "contractName": "Card",
  "abi": [
    {
      "constant": true,
      "inputs": [
        {
          "name": "_address",
          "type": "address"
        },
        {
          "name": "_tokenId",
          "type": "uint256"
        }
      ],
      "name": "balanceOf",
      "outputs": [
        {
          "name": "",
          "type": "uint256"
        }
      ],
      "payable": false,
      "stateMutability": "view",
      "type": "function",
      "signature": "0x00fdd58e"
    },
    {
      "constant": true,
      "inputs": [
        {
          "name": "interfaceId",
          "type": "bytes4"
        }
      ],
      "name": "supportsInterface",
      "outputs": [
        {
          "name": "",
          "type": "bool"
        }
      ],
      "payable": false,
      "stateMutability": "view",
      "type": "function",
      "signature": "0x01ffc9a7"
    },
    {
      "constant": true,
      "inputs": [
        {
          "name": "_tokenId",
          "type": "uint256"
        }
      ],
      "name": "getApproved",
      "outputs": [
        {
          "name": "",
          "type": "address"
        }
      ],
      "payable": false,
      "stateMutability": "view",
      "type": "function",
      "signature": "0x081812fc"
    },
    {
      "constant": false,
      "inputs": [
        {
          "name": "_to",
          "type": "address"
        },
        {
          "name": "_tokenId",
          "type": "uint256"
        },
        {
          "name": "_amount",
          "type": "uint256"
        }
      ],
      "name": "transfer",
      "outputs": [],
      "payable": false,
      "stateMutability": "nonpayable",
      "type": "function",
      "signature": "0x095bcdb6"
    },
    {
      "constant": false,
      "inputs": [
        {
          "name": "_to",
          "type": "address"
        },
        {
          "name": "_tokenId",
          "type": "uint256"
        }
      ],
      "name": "approve",
      "outputs": [],
      "payable": false,
      "stateMutability": "nonpayable",
      "type": "function",
      "signature": "0x095ea7b3"
    },
    {
      "constant": false,
      "inputs": [
        {
          "name": "_from",
          "type": "address"
        },
        {
          "name": "_to",
          "type": "address"
        },
        {
          "name": "_tokenId",
          "type": "uint256"
        },
        {
          "name": "_amount",
          "type": "uint256"
        }
      ],
      "name": "safeTransferFrom",
      "outputs": [],
      "payable": false,
      "stateMutability": "nonpayable",
      "type": "function",
      "signature": "0x0febdd49"
    },
    {
      "constant": true,
      "inputs": [],
      "name": "implementsERC721",
      "outputs": [
        {
          "name": "",
          "type": "bool"
        }
      ],
      "payable": false,
      "stateMutability": "pure",
      "type": "function",
      "signature": "0x1051db34"
    },
    {
      "constant": false,
      "inputs": [
        {
          "name": "_from",
          "type": "address"
        },
        {
          "name": "_to",
          "type": "address"
        },
        {
          "name": "_tokenIds",
          "type": "uint256[]"
        },
        {
          "name": "_amounts",
          "type": "uint256[]"
        }
      ],
      "name": "batchTransferFrom",
      "outputs": [],
      "payable": false,
      "stateMutability": "nonpayable",
      "type": "function",
      "signature": "0x17fad7fc"
    },
    {
      "constant": true,
      "inputs": [],
      "name": "totalSupply",
      "outputs": [
        {
          "name": "",
          "type": "uint256"
        }
      ],
      "payable": false,
      "stateMutability": "view",
      "type": "function",
      "signature": "0x18160ddd"
    },
    {
      "constant": true,
      "inputs": [
        {
          "name": "_owner",
          "type": "address"
        }
      ],
      "name": "tokensOwned",
      "outputs": [
        {
          "name": "indexes",
          "type": "uint256[]"
        },
        {
          "name": "balances",
          "type": "uint256[]"
        }
      ],
      "payable": false,
      "stateMutability": "view",
      "type": "function",
      "signature": "0x21cda790"
    },
    {
      "constant": false,
      "inputs": [
        {
          "name": "_from",
          "type": "address"
        },
        {
          "name": "_to",
          "type": "address"
        },
        {
          "name": "_tokenId",
          "type": "uint256"
        }
      ],
      "name": "transferFrom",
      "outputs": [],
      "payable": false,
      "stateMutability": "nonpayable",
      "type": "function",
      "signature": "0x23b872dd"
    },
    {
      "constant": false,
      "inputs": [
        {
          "name": "_from",
          "type": "address"
        },
        {
          "name": "_to",
          "type": "address"
        },
        {
          "name": "_tokenIds",
          "type": "uint256[]"
        },
        {
          "name": "_amounts",
          "type": "uint256[]"
        },
        {
          "name": "_data",
          "type": "bytes"
        }
      ],
      "name": "safeBatchTransferFrom",
      "outputs": [],
      "payable": false,
      "stateMutability": "nonpayable",
      "type": "function",
      "signature": "0x2eb2c2d6"
    },
    {
      "constant": true,
      "inputs": [
        {
          "name": "_owner",
          "type": "address"
        },
        {
          "name": "_index",
          "type": "uint256"
        }
      ],
      "name": "tokenOfOwnerByIndex",
      "outputs": [
        {
          "name": "_tokenId",
          "type": "uint256"
        }
      ],
      "payable": false,
      "stateMutability": "pure",
      "type": "function",
      "signature": "0x2f745c59"
    },
    {
      "constant": false,
      "inputs": [
        {
          "name": "_from",
          "type": "address"
        },
        {
          "name": "_to",
          "type": "address"
        },
        {
          "name": "_tokenId",
          "type": "uint256"
        }
      ],
      "name": "safeTransferFrom",
      "outputs": [],
      "payable": false,
      "stateMutability": "nonpayable",
      "type": "function",
      "signature": "0x42842e0e"
    },
    {
      "constant": true,
      "inputs": [
        {
          "name": "_tokenId",
          "type": "uint256"
        }
      ],
      "name": "exists",
      "outputs": [
        {
          "name": "",
          "type": "bool"
        }
      ],
      "payable": false,
      "stateMutability": "view",
      "type": "function",
      "signature": "0x4f558e79"
    },
    {
      "constant": true,
      "inputs": [
        {
          "name": "_index",
          "type": "uint256"
        }
      ],
      "name": "tokenByIndex",
      "outputs": [
        {
          "name": "",
          "type": "uint256"
        }
      ],
      "payable": false,
      "stateMutability": "view",
      "type": "function",
      "signature": "0x4f6ccce7"
    },
    {
      "constant": true,
      "inputs": [
        {
          "name": "_tokenId",
          "type": "uint256"
        }
      ],
      "name": "ownerOf",
      "outputs": [
        {
          "name": "",
          "type": "address"
        }
      ],
      "payable": false,
      "stateMutability": "view",
      "type": "function",
      "signature": "0x6352211e"
    },
    {
      "constant": true,
      "inputs": [
        {
          "name": "_owner",
          "type": "address"
        }
      ],
      "name": "balanceOf",
      "outputs": [
        {
          "name": "balance",
          "type": "uint256"
        }
      ],
      "payable": false,
      "stateMutability": "view",
      "type": "function",
      "signature": "0x70a08231"
    },
    {
      "constant": true,
      "inputs": [],
      "name": "nextTokenId",
      "outputs": [
        {
          "name": "",
          "type": "uint256"
        }
      ],
      "payable": false,
      "stateMutability": "view",
      "type": "function",
      "signature": "0x75794a3c"
    },
    {
      "constant": true,
      "inputs": [],
      "name": "implementsERC721X",
      "outputs": [
        {
          "name": "",
          "type": "bool"
        }
      ],
      "payable": false,
      "stateMutability": "pure",
      "type": "function",
      "signature": "0x7fb42a36"
    },
    {
      "constant": false,
      "inputs": [
        {
          "name": "_operator",
          "type": "address"
        },
        {
          "name": "_approved",
          "type": "bool"
        }
      ],
      "name": "setApprovalForAll",
      "outputs": [],
      "payable": false,
      "stateMutability": "nonpayable",
      "type": "function",
      "signature": "0xa22cb465"
    },
    {
      "constant": true,
      "inputs": [
        {
          "name": "",
          "type": "address"
        }
      ],
      "name": "users",
      "outputs": [
        {
          "name": "",
          "type": "uint256"
        }
      ],
      "payable": false,
      "stateMutability": "view",
      "type": "function",
      "signature": "0xa87430ba"
    },
    {
      "constant": false,
      "inputs": [
        {
          "name": "_from",
          "type": "address"
        },
        {
          "name": "_to",
          "type": "address"
        },
        {
          "name": "_tokenId",
          "type": "uint256"
        },
        {
          "name": "_data",
          "type": "bytes"
        }
      ],
      "name": "safeTransferFrom",
      "outputs": [],
      "payable": false,
      "stateMutability": "nonpayable",
      "type": "function",
      "signature": "0xb88d4fde"
    },
    {
      "constant": true,
      "inputs": [
        {
          "name": "_tokenId",
          "type": "uint256"
        }
      ],
      "name": "tokenURI",
      "outputs": [
        {
          "name": "",
          "type": "string"
        }
      ],
      "payable": false,
      "stateMutability": "view",
      "type": "function",
      "signature": "0xc87b56dd"
    },
    {
      "constant": true,
      "inputs": [
        {
          "name": "_owner",
          "type": "address"
        },
        {
          "name": "_operator",
          "type": "address"
        }
      ],
      "name": "isApprovedForAll",
      "outputs": [
        {
          "name": "isOperator",
          "type": "bool"
        }
      ],
      "payable": false,
      "stateMutability": "view",
      "type": "function",
      "signature": "0xe985e9c5"
    },
    {
      "constant": false,
      "inputs": [
        {
          "name": "_from",
          "type": "address"
        },
        {
          "name": "_to",
          "type": "address"
        },
        {
          "name": "_tokenId",
          "type": "uint256"
        },
        {
          "name": "_amount",
          "type": "uint256"
        },
        {
          "name": "_data",
          "type": "bytes"
        }
      ],
      "name": "safeTransferFrom",
      "outputs": [],
      "payable": false,
      "stateMutability": "nonpayable",
      "type": "function",
      "signature": "0xf242432a"
    },
    {
      "constant": false,
      "inputs": [
        {
          "name": "_from",
          "type": "address"
        },
        {
          "name": "_to",
          "type": "address"
        },
        {
          "name": "_tokenId",
          "type": "uint256"
        },
        {
          "name": "_amount",
          "type": "uint256"
        }
      ],
      "name": "transferFrom",
      "outputs": [],
      "payable": false,
      "stateMutability": "nonpayable",
      "type": "function",
      "signature": "0xfe99049a"
    },
    {
      "inputs": [
        {
          "name": "_baseTokenURI",
          "type": "string"
        }
      ],
      "payable": false,
      "stateMutability": "nonpayable",
      "type": "constructor",
      "signature": "constructor"
    },
    {
      "anonymous": false,
      "inputs": [
        {
          "indexed": true,
          "name": "tokenId",
          "type": "uint256"
        },
        {
          "indexed": false,
          "name": "claimer",
          "type": "address"
        },
        {
          "indexed": false,
          "name": "amount",
          "type": "uint256"
        }
      ],
      "name": "TokenAwarded",
      "type": "event",
      "signature": "0xb4689112ada51256c737d26e04c6f6633e247dcef17579e7087b233f2097f3ec"
    },
    {
      "anonymous": false,
      "inputs": [
        {
          "indexed": false,
          "name": "from",
          "type": "address"
        },
        {
          "indexed": false,
          "name": "to",
          "type": "address"
        },
        {
          "indexed": false,
          "name": "tokenTypes",
          "type": "uint256[]"
        },
        {
          "indexed": false,
          "name": "amounts",
          "type": "uint256[]"
        }
      ],
      "name": "BatchTransfer",
      "type": "event",
      "signature": "0xf59807b2c31ca3ba212e90599175c120c556422950bac5be656274483e8581df"
    },
    {
      "anonymous": false,
      "inputs": [
        {
          "indexed": true,
          "name": "from",
          "type": "address"
        },
        {
          "indexed": true,
          "name": "to",
          "type": "address"
        },
        {
          "indexed": true,
          "name": "tokenId",
          "type": "uint256"
        }
      ],
      "name": "Transfer",
      "type": "event",
      "signature": "0xddf252ad1be2c89b69c2b068fc378daa952ba7f163c4a11628f55a4df523b3ef"
    },
    {
      "anonymous": false,
      "inputs": [
        {
          "indexed": true,
          "name": "owner",
          "type": "address"
        },
        {
          "indexed": true,
          "name": "approved",
          "type": "address"
        },
        {
          "indexed": true,
          "name": "tokenId",
          "type": "uint256"
        }
      ],
      "name": "Approval",
      "type": "event",
      "signature": "0x8c5be1e5ebec7d5bd14f71427d1e84f3dd0314c0f7b2291e5b200ac8c7c3b925"
    },
    {
      "anonymous": false,
      "inputs": [
        {
          "indexed": true,
          "name": "owner",
          "type": "address"
        },
        {
          "indexed": true,
          "name": "operator",
          "type": "address"
        },
        {
          "indexed": false,
          "name": "approved",
          "type": "bool"
        }
      ],
      "name": "ApprovalForAll",
      "type": "event",
      "signature": "0x17307eab39ab6107e8899845ad3d59bd9653f200f220920489ca2b5937696c31"
    },
    {
      "anonymous": false,
      "inputs": [
        {
          "indexed": true,
          "name": "from",
          "type": "address"
        },
        {
          "indexed": true,
          "name": "to",
          "type": "address"
        },
        {
          "indexed": true,
          "name": "tokenId",
          "type": "uint256"
        },
        {
          "indexed": false,
          "name": "quantity",
          "type": "uint256"
        }
      ],
      "name": "TransferWithQuantity",
      "type": "event",
      "signature": "0x2114851a3e2a54429989f46c1ab0743e37ded205d9bbdfd85635aed5bd595a06"
    },
    {
      "constant": true,
      "inputs": [],
      "name": "isOwner",
      "outputs": [
        {
          "name": "",
          "type": "bool"
        }
      ],
      "payable": false,
      "stateMutability": "view",
      "type": "function",
      "signature": "0x8f32d59b"
    },
    {
      "constant": true,
      "inputs": [],
      "name": "name",
      "outputs": [
        {
          "name": "",
          "type": "string"
        }
      ],
      "payable": false,
      "stateMutability": "view",
      "type": "function",
      "signature": "0x06fdde03"
    },
    {
      "constant": true,
      "inputs": [],
      "name": "symbol",
      "outputs": [
        {
          "name": "",
          "type": "string"
        }
      ],
      "payable": false,
      "stateMutability": "view",
      "type": "function",
      "signature": "0x95d89b41"
    },
    {
      "constant": true,
      "inputs": [
        {
          "name": "_tokenId",
          "type": "uint256"
        }
      ],
      "name": "individualSupply",
      "outputs": [
        {
          "name": "",
          "type": "uint256"
        }
      ],
      "payable": false,
      "stateMutability": "view",
      "type": "function",
      "signature": "0x17be1933"
    },
    {
      "constant": false,
      "inputs": [],
      "name": "mint",
      "outputs": [
        {
          "name": "",
          "type": "uint256"
        }
      ],
      "payable": false,
      "stateMutability": "nonpayable",
      "type": "function",
      "signature": "0x1249c58b"
    },
    {
      "constant": false,
      "inputs": [
        {
          "name": "_tokenId",
          "type": "uint256"
        },
        {
          "name": "_supply",
          "type": "uint256"
        }
      ],
      "name": "mintToken",
      "outputs": [],
      "payable": false,
      "stateMutability": "nonpayable",
      "type": "function",
      "signature": "0x20cbf5f9"
    },
    {
      "constant": false,
      "inputs": [
        {
          "name": "_tokenId",
          "type": "uint256"
        },
        {
          "name": "_toAddress",
          "type": "address"
        },
        {
          "name": "_amount",
          "type": "uint256"
        }
      ],
      "name": "awardToken",
      "outputs": [],
      "payable": false,
      "stateMutability": "nonpayable",
      "type": "function",
      "signature": "0xd6afb1f5"
    },
    {
      "constant": false,
      "inputs": [
        {
          "name": "_age",
          "type": "uint256"
        }
      ],
      "name": "addUser",
      "outputs": [],
      "payable": false,
      "stateMutability": "nonpayable",
      "type": "function",
      "signature": "0xe1d81736"
    },
    {
      "constant": true,
      "inputs": [],
      "name": "getUser",
      "outputs": [
        {
          "name": "",
          "type": "uint256"
        }
      ],
      "payable": false,
      "stateMutability": "view",
      "type": "function",
      "signature": "0x832880e7"
    }
  ],
  "bytecode": "0x60806040526000600c553480156200001657600080fd5b5060405162002a0d38038062002a0d833981018060405260208110156200003c57600080fd5b8101908080516401000000008111156200005557600080fd5b820160208101848111156200006957600080fd5b81516401000000008111828201871017156200008457600080fd5b50509291905050508080620000a66301ffc9a760e01b620000f560201b60201c565b620000be6380ac58cd60e01b620000f560201b60201c565b8051620000d390600b90602084019062000162565b50620000ec635b5e139f60e01b620000f560201b60201c565b50505062000207565b7fffffffff0000000000000000000000000000000000000000000000000000000080821614156200012557600080fd5b7fffffffff00000000000000000000000000000000000000000000000000000000166000908152602081905260409020805460ff19166001179055565b828054600181600116156101000203166002900490600052602060002090601f016020900481019282601f10620001a557805160ff1916838001178555620001d5565b82800160010185558215620001d5579182015b82811115620001d5578251825591602001919060010190620001b8565b50620001e3929150620001e7565b5090565b6200020491905b80821115620001e35760008155600101620001ee565b90565b6127f680620002176000396000f3fe608060405234801561001057600080fd5b506004361061021b5760003560e01c80634f558e7911610125578063a22cb465116100ad578063d6afb1f51161007c578063d6afb1f514610a69578063e1d8173614610a9b578063e985e9c514610ab8578063f242432a14610ae6578063fe99049a14610baf5761021b565b8063a22cb46514610934578063a87430ba14610962578063b88d4fde14610988578063c87b56dd14610a4c5761021b565b806375794a3c116100f457806375794a3c146109145780637fb42a36146103eb578063832880e71461091c5780638f32d59b1461092457806395d89b411461092c5761021b565b80634f558e79146108975780634f6ccce7146108b45780636352211e146108d157806370a08231146108ee5761021b565b806317be1933116101a857806321cda7901161017757806321cda7901461057f57806323b872dd1461063e5780632eb2c2d6146106745780632f745c591461083557806342842e0e146108615761021b565b806317be1933146103fb57806317fad7fc1461041857806318160ddd1461055457806320cbf5f91461055c5761021b565b8063095bcdb6116101ef578063095bcdb61461034f578063095ea7b3146103835780630febdd49146103af5780631051db34146103eb5780631249c58b146103f35761021b565b8062fdd58e1461022057806301ffc9a71461025e57806306fdde0314610299578063081812fc14610316575b600080fd5b61024c6004803603604081101561023657600080fd5b506001600160a01b038135169060200135610beb565b60408051918252519081900360200190f35b6102856004803603602081101561027457600080fd5b50356001600160e01b031916610c3b565b604080519115158252519081900360200190f35b6102a1610c5e565b6040805160208082528351818301528351919283929083019185019080838360005b838110156102db5781810151838201526020016102c3565b50505050905090810190601f1680156103085780820380516001836020036101000a031916815260200191505b509250505060405180910390f35b6103336004803603602081101561032c57600080fd5b5035610c7f565b604080516001600160a01b039092168252519081900360200190f35b6103816004803603606081101561036557600080fd5b506001600160a01b038135169060208101359060400135610c9a565b005b6103816004803603604081101561039957600080fd5b506001600160a01b038135169060200135610cab565b610381600480360360808110156103c557600080fd5b506001600160a01b03813581169160208101359091169060408101359060600135610d58565b610285610d7a565b61024c610d7f565b61024c6004803603602081101561041157600080fd5b5035610da8565b6103816004803603608081101561042e57600080fd5b6001600160a01b038235811692602081013590911691810190606081016040820135600160201b81111561046157600080fd5b82018360208201111561047357600080fd5b803590602001918460208302840111600160201b8311171561049457600080fd5b9190808060200260200160405190810160405280939291908181526020018383602002808284376000920191909152509295949360208101935035915050600160201b8111156104e357600080fd5b8201836020820111156104f557600080fd5b803590602001918460208302840111600160201b8311171561051657600080fd5b919080806020026020016040519081016040528093929190818152602001838360200280828437600092019190915250929550610dba945050505050565b61024c610dc6565b6103816004803603604081101561057257600080fd5b5080359060200135610dcc565b6105a56004803603602081101561059557600080fd5b50356001600160a01b0316610de9565b604051808060200180602001838103835285818151815260200191508051906020019060200280838360005b838110156105e95781810151838201526020016105d1565b50505050905001838103825284818151815260200191508051906020019060200280838360005b83811015610628578181015183820152602001610610565b5050505090500194505050505060405180910390f35b6103816004803603606081101561065457600080fd5b506001600160a01b03813581169160208101359091169060400135610fb1565b610381600480360360a081101561068a57600080fd5b6001600160a01b038235811692602081013590911691810190606081016040820135600160201b8111156106bd57600080fd5b8201836020820111156106cf57600080fd5b803590602001918460208302840111600160201b831117156106f057600080fd5b9190808060200260200160405190810160405280939291908181526020018383602002808284376000920191909152509295949360208101935035915050600160201b81111561073f57600080fd5b82018360208201111561075157600080fd5b803590602001918460208302840111600160201b8311171561077257600080fd5b9190808060200260200160405190810160405280939291908181526020018383602002808284376000920191909152509295949360208101935035915050600160201b8111156107c157600080fd5b8201836020820111156107d357600080fd5b803590602001918460018302840111600160201b831117156107f457600080fd5b91908080601f016020809104026020016040519081016040528093929190818152602001838380828437600092019190915250929550610fbc945050505050565b61024c6004803603604081101561084b57600080fd5b506001600160a01b0381351690602001356111a0565b6103816004803603606081101561087757600080fd5b506001600160a01b038135811691602081013590911690604001356111a8565b610285600480360360208110156108ad57600080fd5b50356111c3565b61024c600480360360208110156108ca57600080fd5b50356111d7565b610333600480360360208110156108e757600080fd5b503561120b565b61024c6004803603602081101561090457600080fd5b50356001600160a01b0316611293565b61024c6112a9565b61024c6112af565b6102856112c2565b6102a16112d3565b6103816004803603604081101561094a57600080fd5b506001600160a01b03813516906020013515156112f3565b61024c6004803603602081101561097857600080fd5b50356001600160a01b0316611361565b6103816004803603608081101561099e57600080fd5b6001600160a01b03823581169260208101359091169160408201359190810190608081016060820135600160201b8111156109d857600080fd5b8201836020820111156109ea57600080fd5b803590602001918460018302840111600160201b83111715610a0b57600080fd5b91908080601f016020809104026020016040519081016040528093929190818152602001838380828437600092019190915250929550611373945050505050565b6102a160048036036020811015610a6257600080fd5b50356113c8565b61038160048036036060811015610a7f57600080fd5b508035906001600160a01b036020820135169060400135611509565b61038160048036036020811015610ab157600080fd5b5035611613565b61028560048036036040811015610ace57600080fd5b506001600160a01b0381358116916020013516611625565b610381600480360360a0811015610afc57600080fd5b6001600160a01b03823581169260208101359091169160408201359160608101359181019060a081016080820135600160201b811115610b3b57600080fd5b820183602082011115610b4d57600080fd5b803590602001918460018302840111600160201b83111715610b6e57600080fd5b91908080601f016020809104026020016040519081016040528093929190818152602001838380828437600092019190915250929550611653945050505050565b61038160048036036080811015610bc557600080fd5b506001600160a01b038135811691602081013590911690604081013590606001356116aa565b6000806000610bf9846116b6565b6001600160a01b03871660009081526006602090815260408083208584529091529020549193509150610c32908263ffffffff6116c716565b95945050505050565b6001600160e01b0319811660009081526020819052604090205460ff165b919050565b6040805180820190915260048152600160e21b6310d85c9902602082015290565b6000908152600960205260409020546001600160a01b031690565b610ca6338484846116df565b505050565b6000610cb68261120b565b9050806001600160a01b0316836001600160a01b03161415610cd757600080fd5b336001600160a01b0382161480610cf35750610cf38133611625565b610cfc57600080fd5b60008281526009602052604080822080546001600160a01b0319166001600160a01b0387811691821790925591518593918516917f8c5be1e5ebec7d5bd14f71427d1e84f3dd0314c0f7b2291e5b200ac8c7c3b92591a4505050565b610d748484848460405180602001604052806000815250611653565b50505050565b600190565b600c54600090610d9681600163ffffffff61188116565b600c55610da3338261189a565b905090565b6000908152600f602052604090205490565b610d7484848484611929565b60055490565b610dd7823383611ef1565b6000918252600f602052604090912055565b6060806000610df6610dc6565b9050606081604051908082528060200260200182016040528015610e24578160200160208202803883390190505b509050606082604051908082528060200260200182016040528015610e53578160200160208202803883390190505b5090506000805b84811015610eda57600060058281548110610e7157fe5b906000526020600020015490506000610e8a8a83610beb565b1115610ed157610e9a8982610beb565b848481518110610ea657fe5b60200260200101818152505080858481518110610ebf57fe5b60209081029190910101526001909201915b50600101610e5a565b50606081604051908082528060200260200182016040528015610f07578160200160208202803883390190505b509050606082604051908082528060200260200182016040528015610f36578160200160208202803883390190505b50905060005b83811015610fa357848181518110610f5057fe5b6020026020010151838281518110610f6457fe5b602002602001018181525050858181518110610f7c57fe5b6020026020010151828281518110610f9057fe5b6020908102919091010152600101610f3c565b509650945050505050915091565b610ca6838383611fef565b610fc885858585611929565b610fda846001600160a01b03166120e2565b15611199576000846001600160a01b031663b3b0f4c733888787876040518663ffffffff1660e01b815260040180866001600160a01b03166001600160a01b03168152602001856001600160a01b03166001600160a01b03168152602001806020018060200180602001848103845287818151815260200191508051906020019060200280838360005b8381101561107c578181015183820152602001611064565b50505050905001848103835286818151815260200191508051906020019060200280838360005b838110156110bb5781810151838201526020016110a3565b50505050905001848103825285818151815260200191508051906020019080838360005b838110156110f75781810151838201526020016110df565b50505050905090810190601f1680156111245780820380516001836020036101000a031916815260200191505b5098505050505050505050602060405180830381600087803b15801561114957600080fd5b505af115801561115d573d6000803e3d6000fd5b505050506040513d602081101561117357600080fd5b505190506001600160e01b03198116600160e11b6374f2df35021461119757600080fd5b505b5050505050565b600092915050565b610ca683838360405180602001604052806000815250611373565b6000908152600a6020526040902054151590565b60006111e1610dc6565b82106111ec57600080fd5b600582815481106111f957fe5b90600052602060002001549050919050565b6000818152600760205260408120546001600160a01b03166112775760408051600160e51b62461bcd02815260206004820152601360248201527f436f696e20646f6573206e6f7420657869737400000000000000000000000000604482015290519081900360640190fd5b506000908152600760205260409020546001600160a01b031690565b600060606112a083610de9565b51949350505050565b600c5481565b3360009081526010602052604090205490565b600d546001600160a01b0316331490565b6040805180820190915260038152600160ea1b6210d49102602082015290565b3360008181526008602090815260408083206001600160a01b03871680855290835292819020805460ff1916861515908117909155815190815290519293927f17307eab39ab6107e8899845ad3d59bd9653f200f220920489ca2b5937696c31929181900390910190a35050565b60106020526000908152604090205481565b61137e848484611fef565b61138a848484846120e8565b610d7457604051600160e51b62461bcd0281526004018080602001828103825260328152602001806126fc6032913960400191505060405180910390fd5b60606113d3826111c3565b6114275760408051600160e51b62461bcd02815260206004820152601360248201527f546f6b656e20646f65736e277420657869737400000000000000000000000000604482015290519081900360640190fd5b600b61143283612222565b60405160200180838054600181600116156101000203166002900480156114905780601f1061146e576101008083540402835291820191611490565b820191906000526020600020905b81548152906001019060200180831161147c575b5050825160208401908083835b602083106114bc5780518252601f19909201916020918201910161149d565b5181516020939093036101000a6000190180199091169216919091179052600160d91b64173539b7b70292019182525060408051808303601a190181526005909201905295945050505050565b611512836111c3565b6115665760408051600160e51b62461bcd02815260206004820152601b60248201527f546f6b656e494420686173206e6f74206265656e206d696e7465640000000000604482015290519081900360640190fd5b6115703384610beb565b8111156115b157604051600160e51b62461bcd0281526004018080602001828103825260258152602001806126b46025913960400191505060405180910390fd5b6115be33848360016122e6565b6115cb82848360006122e6565b604080516001600160a01b038416815260208101839052815185927fb4689112ada51256c737d26e04c6f6633e247dcef17579e7087b233f2097f3ec928290030190a2505050565b33600090815260106020526040902055565b6001600160a01b03918216600090815260086020908152604080832093909416825291909152205460ff1690565b61165f858585856116df565b61166c858585858561235d565b61119957604051600160e51b62461bcd0281526004018080602001828103825260338152602001806127766033913960400191505060405180910390fd5b610d74848484846116df565b610100601082020491600f90911690565b600181016010026101000382901c61ffff1692915050565b83336001600160a01b038216148061171a57506001600160a01b038116600090815260086020908152604080832033845290915290205460ff165b61175857604051600160e51b62461bcd02815260040180806020018281038252602881526020018061274e6028913960400191505060405180910390fd5b6000838152600a602052604090205460021461177357600080fd5b61177d8584610beb565b8211156117be57604051600160e51b62461bcd0281526004018080602001828103825260228152602001806127a96022913960400191505060405180910390fd5b6001600160a01b0384166118145760408051600160e51b62461bcd0281526020600482015260126024820152600160701b71496e76616c696420746f206164647265737302604482015290519081900360640190fd5b61182185848460016122e6565b61182e84848460006122e6565b82846001600160a01b0316866001600160a01b03167f2114851a3e2a54429989f46c1ab0743e37ded205d9bbdfd85635aed5bd595a06856040518082815260200191505060405180910390a45050505050565b60008282018381101561189357600080fd5b9392505050565b6001600160a01b0382166118ad57600080fd5b6118b6816124b9565b156118c057600080fd5b600081815260016020908152604080832080546001600160a01b0319166001600160a01b0387169081179091558352600390915290206118ff906124d6565b60405181906001600160a01b0384169060009060008051602061272e833981519152908290a45050565b83336001600160a01b038216148061196457506001600160a01b038116600090815260086020908152604080832033845290915290205460ff165b6119a257604051600160e51b62461bcd02815260040180806020018281038252602881526020018061274e6028913960400191505060405180910390fd5b81518351146119e557604051600160e51b62461bcd02815260040180806020018281038252602681526020018061268e6026913960400191505060405180910390fd5b6001600160a01b038416611a435760408051600160e51b62461bcd02815260206004820152601160248201527f496e76616c696420726563697069656e74000000000000000000000000000000604482015290519081900360640190fd5b6001600a600085600081518110611a5657fe5b60200260200101518152602001908152602001600020541415611b0357836007600085600081518110611a8557fe5b6020026020010151815260200190815260200160002060006101000a8154816001600160a01b0302191690836001600160a01b0316021790555082600081518110611acc57fe5b6020026020010151846001600160a01b0316866001600160a01b031660008051602061272e83398151915260405160405180910390a45b600080611b2385600081518110611b1657fe5b60200260200101516116b6565b915091506000611b80600660008a6001600160a01b03166001600160a01b031681526020019081526020016000206000858152602001908152602001600020548387600081518110611b7157fe5b602002602001015160016124df565b90506000611bdb600660008a6001600160a01b03166001600160a01b031681526020019081526020016000206000868152602001908152602001600020548488600081518110611bcc57fe5b602002602001015160006124df565b87519091508460015b82811015611d7e576001600a60008c8481518110611bfe57fe5b60200260200101518152602001908152602001600020541415611ca9578a600760008c8481518110611c2c57fe5b6020026020010151815260200190815260200160002060006101000a8154816001600160a01b0302191690836001600160a01b03160217905550898181518110611c7257fe5b60200260200101518b6001600160a01b03168d6001600160a01b031660008051602061272e83398151915260405160405180910390a45b611cb88a8281518110611b1657fe5b9097509550818714611d1c576001600160a01b038c811660009081526006602081815260408084208785528083528185209a909a55938f16835290815282822094825284815282822096909655888152958552808620549290945292909320549185905b611d47868a8381518110611d2c57fe5b60200260200101516001886124df909392919063ffffffff16565b9450611d74868a8381518110611d5957fe5b60200260200101516000876124df909392919063ffffffff16565b9350600101611be4565b5083600660008d6001600160a01b03166001600160a01b0316815260200190815260200160002060008881526020019081526020016000208190555082600660008c6001600160a01b03166001600160a01b031681526020019081526020016000206000888152602001908152602001600020819055507ff59807b2c31ca3ba212e90599175c120c556422950bac5be656274483e8581df8b8b8b8b60405180856001600160a01b03166001600160a01b03168152602001846001600160a01b03166001600160a01b031681526020018060200180602001838103835285818151815260200191508051906020019060200280838360005b83811015611e8e578181015183820152602001611e76565b50505050905001838103825284818151815260200191508051906020019060200280838360005b83811015611ecd578181015183820152602001611eb5565b50505050905001965050505050505060405180910390a15050505050505050505050565b611efa836111c3565b611f46576000838152600a60205260408120600290556005805460018101825591527f036b6384b5eca791c62761152d0c79bb0604c104a5fb6f4eb0703f3154bb3db001839055611f9a565b6000838152600a6020526040902054600214611f9a5760408051600160e51b62461bcd0281526020600482015260086024820152600160c21b67139bdd081848119502604482015290519081900360640190fd5b611fa782848360006122e6565b60408051828152905184916001600160a01b0385169130917f2114851a3e2a54429989f46c1ab0743e37ded205d9bbdfd85635aed5bd595a06919081900360200190a4505050565b6000818152600a602052604090205460011461200a57600080fd5b61201d836120178361120b565b836125c6565b61202657600080fd5b6001600160a01b03821661207c5760408051600160e51b62461bcd0281526020600482015260126024820152600160701b71496e76616c696420746f206164647265737302604482015290519081900360640190fd5b61208a8382600060026122e6565b6120988282600160026122e6565b60008181526007602052604080822080546001600160a01b0319166001600160a01b03868116918217909255915184939187169160008051602061272e83398151915291a4505050565b3b151590565b60006120fc846001600160a01b03166120e2565b6121085750600161221a565b604051600160e11b630a85bd0102815233600482018181526001600160a01b03888116602485015260448401879052608060648501908152865160848601528651600095928a169463150b7a029490938c938b938b939260a4019060208501908083838e5b8381101561218557818101518382015260200161216d565b50505050905090810190601f1680156121b25780820380516001836020036101000a031916815260200191505b5095505050505050602060405180830381600087803b1580156121d457600080fd5b505af11580156121e8573d6000803e3d6000fd5b505050506040513d60208110156121fe57600080fd5b50516001600160e01b031916600160e11b630a85bd0102149150505b949350505050565b60608161224a57506040805180820190915260018152600160fc1b6003026020820152610c59565b8160005b811561226257600101600a8204915061224e565b6060816040519080825280601f01601f19166020018201604052801561228f576020820181803883390190505b50905060001982015b85156122dd57600a860660300160f81b828280600190039350815181106122bb57fe5b60200101906001600160f81b031916908160001a905350600a86049550612298565b50949350505050565b6000806122f2856116b6565b6001600160a01b0388166000908152600660209081526040808320858452909152902054919350915061232d9082868663ffffffff6124df16565b6001600160a01b039096166000908152600660209081526040808320948352939052919091209490945550505050565b6000612371856001600160a01b03166120e2565b61237d57506001610c32565b6000856001600160a01b03166393ba7daa33898888886040518663ffffffff1660e01b815260040180866001600160a01b03166001600160a01b03168152602001856001600160a01b03166001600160a01b0316815260200184815260200183815260200180602001828103825283818151815260200191508051906020019080838360005b8381101561241b578181015183820152602001612403565b50505050905090810190601f1680156124485780820380516001836020036101000a031916815260200191505b509650505050505050602060405180830381600087803b15801561246b57600080fd5b505af115801561247f573d6000803e3d6000fd5b505050506040513d602081101561249557600080fd5b50516001600160e01b031916600160e41b630660b337021491505095945050505050565b6000908152600160205260409020546001600160a01b0316151590565b80546001019055565b600080808360028111156124ef57fe5b1415612522576124ff86866116c7565b905061251b8686612516848863ffffffff61188116565b612611565b91506122dd565b600183600281111561253057fe5b14156125575761254086866116c7565b905061251b8686612516848863ffffffff61267816565b600283600281111561256557fe5b14156125765761251b868686612611565b60408051600160e51b62461bcd02815260206004820152601160248201527f496e76616c6964206f7065726174696f6e000000000000000000000000000000604482015290519081900360640190fd5b6000826001600160a01b0316846001600160a01b031614806126015750836001600160a01b03166125f683610c7f565b6001600160a01b0316145b8061221a575061221a8385611625565b600062010000821061265757604051600160e51b62461bcd0281526004018080602001828103825260238152602001806126d96023913960400191505060405180910390fd5b5061ffff600183016010026101000390811b1984169082901b179392505050565b60008282111561268757600080fd5b5090039056fe496e636f6e73697374656e74206172726179206c656e677468206265747765656e20617267735175616e746974792067726561746572207468616e2072656d61696e696e67206361726473416d6f756e7420746f20777269746520696e2062696e20697320746f6f206c6172676553656e7420746f206120636f6e7472616374207768696368206973206e6f7420616e20455243373231207265636569766572ddf252ad1be2c89b69c2b068fc378daa952ba7f163c4a11628f55a4df523b3ef6d73672e73656e646572206973206e656974686572205f66726f6d206e6f72206f70657261746f7253656e7420746f206120636f6e7472616374207768696368206973206e6f7420616e20455243373231582072656365697665725175616e746974792067726561746572207468616e2066726f6d2062616c616e6365a165627a7a72305820a1e1ab5fc37fc440227f8fd3bb3d4db065f1da9aacc596e868cf7bf8f55526a10029",
  "source": "pragma solidity ^0.5.6 <0.7.0;\n\nimport \"./ERC721X/ERC721XToken.sol\";\nimport \"./ERC721X/ERC721XTokenNFT.sol\";\nimport \"./Ownable.sol\";\n\ncontract Card is ERC721XToken {\n\n    uint256 public nextTokenId = 0;\n    address private _owner;\n    uint[] tmp_int;\n\n    modifier onlyOwner() {\n      require(isOwner());\n      _;\n    }\n\n    mapping(uint => uint) internal tokenIdToIndividualSupply;\n    constructor(string memory _baseTokenURI) public ERC721XToken(_baseTokenURI) {}\n    event TokenAwarded(uint indexed tokenId, address claimer, uint amount);\n\n    //event mint(address from);\n\n    function isOwner() public view returns(bool) {\n      return msg.sender == _owner;\n    }\n\n    function name() public view returns (string memory) {\n        return \"Card\";\n    }\n\n    function symbol() public view returns (string memory) {\n        return \"CRD\";\n    }\n\n    function individualSupply(uint _tokenId) public view returns (uint) {\n        return tokenIdToIndividualSupply[_tokenId];\n    }\n\n    function mint() public returns (uint256) {\n        uint256 tokenId = nextTokenId;\n        nextTokenId = nextTokenId.add(1);\n        super._mint(msg.sender, tokenId);\n\n        return tokenId;\n    }\n\n    function mintToken(uint _tokenId, uint _supply) public{\n      //require(!exists(_tokenId), \"Error: Tried to mint duplicate token id\");\n        super._mint(_tokenId, msg.sender, _supply);\n        tokenIdToIndividualSupply[_tokenId] = _supply;\n    }\n\n    //function awardToken(uint _tokenId, address _toAddress, uint _amount) public onlyOwner {\n    function awardToken(uint _tokenId, address _toAddress, uint _amount) public {\n        require(exists(_tokenId), \"TokenID has not been minted\");\n        //if (individualSupply[_tokenId] > 0) {\n          require(_amount <= balanceOf(msg.sender, _tokenId), \"Quantity greater than remaining cards\");\n          _updateTokenBalance(msg.sender, _tokenId, _amount, ObjectLib.Operations.SUB);\n        //}\n        _updateTokenBalance(_toAddress, _tokenId, _amount, ObjectLib.Operations.ADD);\n        emit TokenAwarded(_tokenId, _toAddress, _amount);\n    }\n\n    mapping(address => uint) public users;\n\n    function addUser(uint _age) public {\n      users[msg.sender] = _age;\n    }\n\n    function getUser() public view returns (uint) {\n      return users[msg.sender];\n    }\n\n}\n",
  "sourcePath": "/Users/vulture0902/work/x_17_tobisako/_src/xx_11_ERC721x/contracts/Core/Card.sol",
  "compiler": {
    "name": "solc",
    "version": "0.5.6+commit.b259423e.Emscripten.clang"
  },
  "schemaVersion": "3.0.3",
  "updatedAt": "2019-05-24T18:31:43.246Z",
  "devdoc": {
    "methods": {
      "approve(address,uint256)": {
        "details": "Approves another address to transfer the given token ID The zero address indicates there is no approved address. There can only be one approved address per token at a given time. Can only be called by the token owner or an approved operator.",
        "params": {
          "_to": "address to be approved for the given token ID",
          "_tokenId": "uint256 ID of the token to be approved"
        }
      },
      "balanceOf(address)": {
        "details": "Gets the number of tokens owned by the address we are checking",
        "params": {
          "_owner": "The adddress we are checking"
        },
        "return": "balance The unique amount of tokens owned"
      },
      "balanceOf(address,uint256)": {
        "details": "return the _tokenId type' balance of _address",
        "params": {
          "_address": "Address to query balance of",
          "_tokenId": "type to query balance of"
        },
        "return": "Amount of objects of a given type ID"
      },
      "exists(uint256)": {
        "details": "Returns whether the specified token exists",
        "params": {
          "_tokenId": "uint256 ID of the token to query the existence of"
        },
        "return": "whether the token exists"
      },
      "getApproved(uint256)": {
        "details": "Gets the approved address for a token ID, or zero if no address set",
        "params": {
          "_tokenId": "uint256 ID of the token to query the approval of"
        },
        "return": "address currently approved for the given token ID"
      },
      "isApprovedForAll(address,address)": {
        "details": "Function that verifies whether _operator is an authorized operator of _tokenHolder.",
        "params": {
          "_operator": "The address of the operator to query status of",
          "_owner": "Address of the tokenHolder"
        },
        "return": "A uint256 specifying the amount of tokens still available for the spender."
      },
      "ownerOf(uint256)": {
        "details": "Gets the owner of a given NFT",
        "params": {
          "_tokenId": "uint256 representing the unique token identifier"
        },
        "return": "address the owner of the token"
      },
      "safeBatchTransferFrom(address,address,uint256[],uint256[],bytes)": {
        "details": "transfer objects from different tokenIds to specified address",
        "params": {
          "_amounts": "Array of amount of object per type to be transferred.",
          "_data": "Data to pass to onERC721XReceived() function if recipient is contract Note:  Arrays should be sorted so that all tokenIds in a same bin are adjacent (more efficient).",
          "_from": "The address to BatchTransfer objects from.",
          "_to": "The address to batchTransfer objects to.",
          "_tokenIds": "Array of tokenIds to update balance of"
        }
      },
      "setApprovalForAll(address,bool)": {
        "details": "Will set _operator operator status to true or false",
        "params": {
          "_approved": "_operator's new operator status (true or false)",
          "_operator": "Address to changes operator status."
        }
      },
      "supportsInterface(bytes4)": {
        "details": "implement supportsInterface(bytes4) using a lookup table"
      },
      "tokenByIndex(uint256)": {
        "details": "Gets the token ID at a given index of all the tokens in this contract Reverts if the index is greater or equal to the total number of tokens",
        "params": {
          "_index": "uint256 representing the index to be accessed of the tokens list"
        },
        "return": "uint256 token ID at the given index of the tokens list"
      },
      "tokensOwned(address)": {
        "details": "Gets Iterate through the list of existing tokens and return the indexes       and balances of the tokens owner by the user",
        "params": {
          "_owner": "The adddress we are checking"
        },
        "return": "indexes The tokenIdsbalances The balances of each token"
      },
      "totalSupply()": {
        "details": "Gets the total amount of tokens stored by the contract",
        "return": "uint256 representing the total amount of tokens"
      }
    }
  },
  "userdoc": {
    "methods": {}
  }
}