{
  "contractName": "Hello",
  "abi": [
    {
      "constant": true,
      "inputs": [],
      "name": "say",
      "outputs": [
        {
          "name": "",
          "type": "string"
        }
      ],
      "payable": false,
      "stateMutability": "pure",
      "type": "function",
      "signature": "0x954ab4b2"
    },
    {
      "constant": true,
      "inputs": [],
      "name": "say2",
      "outputs": [
        {
          "name": "",
          "type": "string"
        }
      ],
      "payable": false,
      "stateMutability": "view",
      "type": "function",
      "signature": "0x6948c1a8"
    }
  ],
  "bytecode": "0x60c0604052601060808190527f68656c6c6f20736f6c696469747921210000000000000000000000000000000060a090815261003e9160009190610051565b5034801561004b57600080fd5b506100ec565b828054600181600116156101000203166002900490600052602060002090601f016020900481019282601f1061009257805160ff19168380011785556100bf565b828001600101855582156100bf579182015b828111156100bf5782518255916020019190600101906100a4565b506100cb9291506100cf565b5090565b6100e991905b808211156100cb57600081556001016100d5565b90565b6101b9806100fb6000396000f3fe608060405234801561001057600080fd5b50600436106100365760003560e01c80636948c1a81461003b578063954ab4b2146100b8575b600080fd5b6100436100c0565b6040805160208082528351818301528351919283929083019185019080838360005b8381101561007d578181015183820152602001610065565b50505050905090810190601f1680156100aa5780820380516001836020036101000a031916815260200191505b509250505060405180910390f35b610043610156565b60008054604080516020601f600260001961010060018816150201909516949094049384018190048102820181019092528281526060939092909183018282801561014c5780601f106101215761010080835404028352916020019161014c565b820191906000526020600020905b81548152906001019060200180831161012f57829003601f168201915b5050505050905090565b60408051808201909152600d81527f48656c6c6f2c20776f726c64210000000000000000000000000000000000000060208201529056fea165627a7a7230582090fdb81849615f0ad8e38c15e2e9656c07ed2d009d757bc30b254902079ef57e0029",
  "source": "pragma solidity ^0.5.6;\n\ncontract Hello {\n\n  string greeting = \"hello solidity!!\";\n\n  function say() public pure returns (string memory) {\n      return 'Hello, world!';\n  }\n\n  function say2() public view returns (string memory) {\n      return greeting;\n  }\n\n}\n",
  "sourcePath": "/Users/vulture0902/work/x_17_tobisako/_src/xx_11_ERC721x/contracts/Core/Hello.sol",
  "compiler": {
    "name": "solc",
    "version": "0.5.6+commit.b259423e.Emscripten.clang"
  },
  "schemaVersion": "3.0.3",
  "updatedAt": "2019-04-21T18:16:36.896Z",
  "devdoc": {
    "methods": {}
  },
  "userdoc": {
    "methods": {}
  }
}