{
  "contractName": "Hello",
  "abi": [
    {
      "constant": true,
      "inputs": [],
      "name": "say",
      "outputs": [
        {
          "name": "",
          "type": "string"
        }
      ],
      "payable": false,
      "stateMutability": "pure",
      "type": "function",
      "signature": "0x954ab4b2"
    },
    {
      "constant": true,
      "inputs": [],
      "name": "say2",
      "outputs": [
        {
          "name": "",
          "type": "string"
        }
      ],
      "payable": false,
      "stateMutability": "view",
      "type": "function",
      "signature": "0x6948c1a8"
    },
    {
      "constant": false,
      "inputs": [
        {
          "name": "x",
          "type": "uint256"
        }
      ],
      "name": "set",
      "outputs": [],
      "payable": false,
      "stateMutability": "nonpayable",
      "type": "function",
      "signature": "0x60fe47b1"
    },
    {
      "constant": true,
      "inputs": [],
      "name": "get",
      "outputs": [
        {
          "name": "",
          "type": "uint256"
        }
      ],
      "payable": false,
      "stateMutability": "view",
      "type": "function",
      "signature": "0x6d4ce63c"
    }
  ],
  "bytecode": "0x60c0604052601060808190527f68656c6c6f20736f6c696469747921210000000000000000000000000000000060a090815261003e9160009190610051565b5034801561004b57600080fd5b506100ec565b828054600181600116156101000203166002900490600052602060002090601f016020900481019282601f1061009257805160ff19168380011785556100bf565b828001600101855582156100bf579182015b828111156100bf5782518255916020019190600101906100a4565b506100cb9291506100cf565b5090565b6100e991905b808211156100cb57600081556001016100d5565b90565b610213806100fb6000396000f3fe608060405234801561001057600080fd5b506004361061004c5760003560e01c806360fe47b1146100515780636948c1a8146100705780636d4ce63c146100ed578063954ab4b214610107575b600080fd5b61006e6004803603602081101561006757600080fd5b503561010f565b005b610078610114565b6040805160208082528351818301528351919283929083019185019080838360005b838110156100b257818101518382015260200161009a565b50505050905090810190601f1680156100df5780820380516001836020036101000a031916815260200191505b509250505060405180910390f35b6100f56101aa565b60408051918252519081900360200190f35b6100786101b0565b600155565b60008054604080516020601f60026000196101006001881615020190951694909404938401819004810282018101909252828152606093909290918301828280156101a05780601f10610175576101008083540402835291602001916101a0565b820191906000526020600020905b81548152906001019060200180831161018357829003601f168201915b5050505050905090565b60015490565b60408051808201909152600d81527f48656c6c6f2c20776f726c64210000000000000000000000000000000000000060208201529056fea165627a7a7230582095bfc318c2f7ac41a496fb79c3c3937f05ac9dd6b9c50248fe8e2be59af985d40029",
  "source": "pragma solidity ^0.5.6;\n\ncontract Hello {\n\n  string greeting = \"hello solidity!!\";\n\n  function say() public pure returns (string memory) {\n      return 'Hello, world!';\n  }\n\n  function say2() public view returns (string memory) {\n      return greeting;\n  }\n\n  uint storedData;\n\n  function set(uint x) public {\n      storedData = x;\n  }\n\n  function get() public view returns (uint) {\n      return storedData;\n  }\n\n}\n",
  "sourcePath": "/Users/vulture0902/work/x_17_tobisako/_src/xx_11_ERC721x/contracts/Core/Hello.sol",
  "compiler": {
    "name": "solc",
    "version": "0.5.6+commit.b259423e.Emscripten.clang"
  },
  "schemaVersion": "3.0.3",
  "updatedAt": "2019-04-19T04:35:20.102Z",
  "devdoc": {
    "methods": {}
  },
  "userdoc": {
    "methods": {}
  }
}