{
  "contractName": "MappingExample",
  "abi": [
    {
      "constant": true,
      "inputs": [
        {
          "name": "",
          "type": "address"
        }
      ],
      "name": "balances",
      "outputs": [
        {
          "name": "",
          "type": "uint256"
        }
      ],
      "payable": false,
      "stateMutability": "view",
      "type": "function",
      "signature": "0x27e235e3"
    },
    {
      "constant": false,
      "inputs": [
        {
          "name": "newBalance",
          "type": "uint256"
        }
      ],
      "name": "update",
      "outputs": [],
      "payable": false,
      "stateMutability": "nonpayable",
      "type": "function",
      "signature": "0x82ab890a"
    }
  ],
  "bytecode": "0x608060405234801561001057600080fd5b5060d88061001f6000396000f3fe6080604052348015600f57600080fd5b506004361060325760003560e01c806327e235e314603757806382ab890a14606c575b600080fd5b605a60048036036020811015604b57600080fd5b50356001600160a01b03166088565b60408051918252519081900360200190f35b608660048036036020811015608057600080fd5b5035609a565b005b60006020819052908152604090205481565b3360009081526020819052604090205556fea165627a7a7230582051f7c99ffe8fc99fff8ee9c108321fb3ff8d93d23651258d9917c915c98ba2190029",
  "source": "pragma solidity ^0.5.6;\n\ncontract Hello {\n\n  string greeting = \"hello solidity!!\";\n\n  function say() public pure returns (string memory) {\n      return 'Hello, world!';\n  }\n\n  function say2() public view returns (string memory) {\n      return greeting;\n  }\n\n  uint storedData;\n\n  function set(uint x) public {\n      storedData = x;\n  }\n\n  function get() public view returns (uint) {\n      return storedData;\n  }\n\n}\n\ncontract MappingExample {\n    mapping(address => uint) public balances;\n\n    function update(uint newBalance) public {\n        balances[msg.sender] = newBalance;\n    }\n}\n\ncontract MappingUser {\n    function f() public returns (uint) {\n        MappingExample m = new MappingExample();\n        m.update(100);\n        return m.balances(address(this));\n    }\n}\n",
  "sourcePath": "/Users/vulture0902/work/x_17_tobisako/_src/xx_11_ERC721x/contracts/Core/Hello.sol",
  "compiler": {
    "name": "solc",
    "version": "0.5.6+commit.b259423e.Emscripten.clang"
  },
  "schemaVersion": "3.0.3",
  "updatedAt": "2019-04-19T04:44:37.797Z",
  "devdoc": {
    "methods": {}
  },
  "userdoc": {
    "methods": {}
  }
}